:020000040800F2
:1000000000000120E1E00008D5D00008DBD00008A6
:10001000E1D00008E7D00008EDD0000800000000A3
:10002000000000000000000000000000519A0108DC
:10003000F3D0000800000000319C0108FFD0000848
:1000400031E1000831E1000819D1000831E1000870
:1000500031E1000831E1000831E1000831E1000838
:1000600031E1000831E1000831E1000831E1000828
:1000700031E1000831E1000831E100083DD100081C
:1000800031E1000831E1000831E1000831E1000808
:100090000000000031E1000831E1000831E1000812
:1000A00031E1000831E1000831E1000831E10008E8
:1000B00031E1000831E1000831E1000831E10008D8
:1000C00031E1000831E1000831E1000831E10008C8
:1000D00051D1000865D1000831E10008A1D1000824
:1000E00031E100082DD1000879D1000831E1000884
:1000F00031E10008000000000000000031E10008CC
:1001000031E1000831E100088DD1000831E100083B
:1001100031E1000831E1000831E1000831E1000877
:1001200031E1000831E1000831E1000831E1000867
:0801300031E1000831E1000893
:1001400010B5054C237833B9044B13B10448AFF311
:1001500000800123237010BDF00700200000000084
:10016000385F030808B5034B1BB103490348AFF3DD
:10017000008008BD00000000F4070020385F03087D
:1001800040F69830704708B500F066FA002008BDC8
:1001900008B500F069FA002008BD00F067BA1FB585
:1001A00001930DF10F030093069B00F0F9FD9DF9FB
:1001B0000F0005B05DF804FB1FB501930DF10F03AF
:1001C0000093069B00F03EF89DF90F0005B05DF826
:1001D00004FB00F053BD00F09CBD10B586B005AC2B
:1001E00003940DF113040294099C0194089C00945B
:1001F00000F094F9059A0A9B9DF913001A6006B065
:1002000010BD10B586B005AC03940DF11304029433
:10021000099C0194089C009400F0D9F9059A0A9B66
:100220009DF913001A6006B010BD1FB50699019123
:100230000DF10F01009100F01FFA9DF90F0005B0BC
:100240005DF804FB2DE9F04F8DB00026DDF858B0C5
:1002500002938BF8006017461A7804460D463AB9A7
:1002600000219DF81E600391A846A9460A4638E081
:100270001799179B01EB02120D330D324FF0000C52
:10028000002000211E7043F805CC03F8016C5E705D
:10029000A3F10D0E10339342CEE90001F2D1DFE756
:1002A000039B059203430393984B1944D9F80830F4
:1002B00011F801AC049304EB8A0A1846DAF84C19D9
:1002C00007F04EF8049B059A28BBDAF86C190492E3
:1002D000184609F1100907F061F8E0B9049A012104
:1002E0000132BA4219DA99F80D104E1EF6B2172EE5
:1002F00001D9FF230BE0864B43FA06F0C007F8D57F
:10030000012303FA06F0039B0342C9D0FA238BF8BA
:1003100000300025F3E0FE23F9E709B18DF81E60F7
:1003200000238DF81D3008AA0AAB3946284604F090
:1003300086FDDDE90A2300214FF6FF708B4208BFDE
:10034000824207D00899204604F095FD10B10123A0
:100350008DF81D309DF81F309DF81D60DFF8ACE171
:1003600005EB071700224FF0040CAF4216D0697B53
:100370007144D5E9002311F8011CE93104EBC101F6
:10038000D1E900018B420ABF82420123002302D13E
:100390000EB98BF800C010350122E6E70AB18DF8DE
:1003A0001F3047450DD09DF81D3098F80D10019372
:1003B000D8F808300093F8E80423204601F048FC00
:1003C000EFE794F8F839002B3DD00DF11D030AAA90
:1003D00008A9204601F0E6FA0DF11F030AAA09A9AF
:1003E000204601F0D5FC9DF81D303BB39DF81F3031
:1003F00023B3089833F096FA07F016F894F8F0391A
:10040000C0B283421CBF05238BF800308DF81E005C
:10041000089894F8865B33F085FA07F005F8013008
:10042000C0B2B0FBF5F305FB1300012384F8F939E2
:100430009DF81E3084F8F00984F8FA3994F8863B68
:10044000013B84F85A3B94F8880B94F8873B009062
:1004500094F8862B94F85A1B204600F0EBFE029B82
:100460001D78002D42D0DFF8B0A0012600254FF600
:10047000FF791F2E06F1FF333BD0264A1A41D207DF
:1004800042D506EB0A0212F8012C04EB4202B2F844
:1004900004294A4538D00127D4F8E02807FA03F3A5
:1004A000134231D00DF11E035FFA86F8009308AABB
:1004B0000AAB4146204601F085FA029B1B78AB420D
:1004C00001D8032313E00135179BEDB2691E03EB3E
:1004D0000111089B8B609DF81E308B73DDE90A23A8
:1004E00081F80D800F73C1E900230DE002238BF822
:1004F00000300023C4F8E038204604F0A2FA029B42
:100500001D700DB0BDE8F08F0136B2E7BC8D030859
:100510000F20E000EF79F23F4C8E03082DE9F04FF9
:1005200087B09946129C109E119FDF239046139A24
:10053000237000231360B9F1170F4FF010038346A7
:10054000059341D900293FD12170012540F2177A46
:1005500003910C2D05F1FF3316D04AFA03F3DB07A4
:1005600030D5039B009332463B46E9B2584601F032
:100570009BF9034630B38DE8C00005AA49464046C2
:1005800004F042FA2070E8B194F90030E3B93A4639
:100590003146584604F0BCFB034638B18DE8C00034
:1005A00005AA4946404604F02FFA207094F90050FD
:1005B00055B9139A059B13601146404604F04EFB53
:1005C000257001E00135C4E707B0BDE8F08F2DE9E3
:1005D000F04F85B09946109D119FDF232B700023AB
:1005E0003B60B9F1180F4FF0100382469046039319
:1005F0002FD951B195F900405CBB039B3B60394654
:10060000404604F02BFB2C7023E02970012440F2BB
:10061000177B0E460C2C04F1FF33EBD04BFA03F39F
:10062000DB0714D50F9B00960E9AE1B2504601F0FD
:100630007AF9034658B10F9A01920E9A00924946F0
:1006400003AA404604F0E0F928700028D2D1013412
:10065000E0E705B0BDE8F08F052202234A700022D2
:100660000B708A70CB70704701F0DCBB08B504F0EA
:100670006DFC002008BD00002DE9F04F95B000266C
:10068000DDF87C80DDF87890C8F808608246CDE916
:10069000022300230022C8E9002300F67231A8F8E3
:1006A0000C60A8F80E6088F8396088F83A6088F81D
:1006B0003B6088F83C6088F83D6088F83E60142212
:1006C00008F110000AF65E372EF0E8F914223946D8
:1006D00008F124002EF0E2F99AF8863B88F83830C9
:1006E000BAF8583B89F8006050460AF53966059318
:1006F00004F0A7F9D6E9002352EA030154D09AF88E
:100700009219002950D1DDE90201801A61EB030141
:100710000022744B04460D460020734932F04CFD14
:10072000BAF8F2B94FF0000CCDE908BCCDE90601EA
:1007300004F0B0FF06F0B0FEDDE908BCA0FB0B231F
:1007400001FB0B334FEA121B101B4BEA037B63EBDD
:1007500005014FEA231C83457CEB0101CDE90C2305
:1007600017DAD6E90034DDE90601BAF8F269254660
:100770001C4604F08FFF06F08FFEA0FB062301FB52
:100780000633A4185D416423C8E9004589F80030A8
:1007900051E2A01A65EB03010B4683457CEB030392
:1007A00002DA642389F800309AF8F839002B00F057
:1007B0009F809AF8863B9AF8FA29013BDBB29A426D
:1007C00040F013829AF89239022B40F00E829AF888
:1007D000F939002B00F009829AF85C3B9AF85B0B20
:1007E000184405F05FFF02460B469AF8F70903F03C
:1007F000C3FC9AF85B3B0130C0B283428AF8F70928
:1008000080F0F3810DF13C093946142248462EF060
:1008100045F9BDF83C0005F035FF4FF0000B0646EA
:100820000F460BF1010B39F81B0005F02BFF0246B8
:100830000B463046394605F0E9FDBBF1090F064687
:100840000F46EED106F028FE9AF85C6BA6FB00235B
:1008500001FB06338C26A2FB060106FB0311234E87
:10086000DDE90223A0FB0645121906FB01556B4189
:10087000CDE90C01C8E9002341460022504604F0AE
:1008800023FDDDE90C670123002E8AF8F73977F1A3
:10089000000308DAB7F1004F08BF002E03D07442FE
:1008A00067EB470501E034463D460A220023204617
:1008B000294606F0D9FD4FF00A0EA0FB0E23A41A1C
:1008C0000EFB013365EB0305002D08BF052C00D39B
:1008D0000130002E77F1000300DA4042AAF8F20955
:1008E000A3E100BF00001C400000244040420F0074
:1008F0000DF12E070DF12D030097424601215046C0
:1009000004F014F9059BBDF82E904B4528BF4B46CB
:1009100099469DF82D303BB19AF8FD3988F83A3068
:100920009AF8FB3988F83B300DF12D0300974246C9
:100930000221504604F0FAF8BDF82E30994528BF40
:1009400099469DF82D303BB19AF8FC3988F83C3037
:100950009AF8FB3988F83B300DF12D030097424699
:100960000321504604F0E2F8BDF82E30994528BF27
:1009700099469DF82D30ABB19AF8FB3988F83B3099
:10098000B14B5B7B0AEB43034FF6FF72B3F8F438CD
:10099000ADF82E3093421EBFD8F8083043F4005310
:1009A000C8F8083000970DF12D0342460421504647
:1009B00004F0BCF8BDF82E709DF82D304F4528BFCF
:1009C0004F460AF69819002B00F0B180012388F8F1
:1009D00039309AF8F1390AEB43030FA9B3F80C3A0E
:1009E000A8F80C309AF8FC3988F83C309AF8FB39B2
:1009F00088F83B3050460DF12D030CAA01F002FAA5
:100A000000210F9806F0A2FC18B19AF8F539002BD6
:100A100077D00AF51A63D9E90001D3E9002390429F
:100A2000CDE90C01994101DACDE90C23DDE90C3463
:100A3000DDE90201C01A61EB040106F0B5FA834951
:100A400006F0A4FB4FF081410F9032F097FC8049F3
:100A500005900F9832F092FC059B06907D49DDF8D9
:100A60003CB0184606F0DEFA069A05907A49104620
:100A700006F0D8FA059B0146184606F0CBF9594610
:100A80000590584606F0CEFA744906F0CBFA059B5D
:100A90000146184606F0BEF971490590584606F021
:100AA000C1FA059B0146184606F0B4F96D4906F0F7
:100AB000B1F96D4906F0B6FA32F034FF06F0B4FC35
:100AC0009AF8F539A8F80E008BB1002301934FF086
:100AD0007E5300931621DDE90223504601F0B8F859
:100AE000D8F8083043F40013C8F8083011E0019337
:100AF000002300931621DDE90223504601F0A8F8F7
:100B000007E09AF8F1390AEB4303B3F8043AA8F87E
:100B10000E309AF8F53933B1DDE902120AF51A639D
:100B2000C3E9001203E0DDE90234C9E90034DDE97C
:100B30000234C6E90034BAF8EE39B3FBF7F607FB26
:100B40001636BE1BB6B2BAF89019AAF8F269334449
:100B50009BB2B3FBF1F201FB1233ADF82E10002271
:100B6000AAF8EE390020414B414932F025FB04F050
:100B700091FD06F091FCDDE90245A0FB062301FB97
:100B80000633A4185D410023C8E900458AF8F53909
:100B9000D9E90023A01A65EB030106F005FA2B49F9
:100BA00006F0F4FA3349064606F0DAFB20B932497A
:100BB000304606F0F3FB08B1652310E00AF51A632E
:100BC000D3E90023A01A65EB030106F0EDF91F49F4
:100BD00006F0DCFA274906F0C3FB18B166238AF851
:100BE000F63928E08AF8F60925E09AF8FD3988F800
:100BF0003A309AF8FB3988F83B309AF8FC3988F893
:100C00003C300123DDE9020188F839300CA3D3E937
:100C1000002380185941C8E900010222414650468C
:100C200004F052FB0423AAF8F239DDE902340AF594
:100C3000396ACAE9003415B0BDE8F08FAFF300801F
:100C4000C00E160200000000BC8D0308286B6E4E1B
:100C500000004040598207B0DFE0C2343767D9B89E
:100C60005A8E863C6A92E43E00007A4400001C40A2
:100C70000000244000007042000070432DE9F04F56
:100C800089B00F461446002105461E460DF1160890
:100C900000F539630DF118090020C3E90001129A2B
:100CA000CDF8009043462146384604F095FB9DF967
:100CB00016304BBB083C0DF11C0A0DF1170B9DF9CA
:100CC00016300BBB069B9C421ED9129BCDF808A088
:100CD0008DE8000932464946384604F0E6F89DF9A9
:100CE00016308BB99DF81710FE2905D1079A3146A9
:100CF000284604F0EDFB04E0079B3246284600F04E
:100D000061FA8DF81600DAE79DF9160009B0BDE822
:100D1000F08F2DE9F04F89B00E4614460DF11607FD
:100D20000DF1180881461D46CDF800803B46129A09
:100D30002146304604F050FB9DF9163043BB083C79
:100D40000DF11C0A0DF1170B9DF9163003BB069B24
:100D50009C421DD9129BCDF808A08DE880082A4638
:100D60004146304604F0A1F89DF9163083B99DF84C
:100D70001710FE2904D10799284604F06FFC04E0FF
:100D8000079B2A46484600F02BFF8DF81600DBE74C
:100D90009DF9160009B0BDE8F08F000000000000CA
:100DA0002DE9F04F91B006461A9C0393002302925E
:100DB000237088462E2200F6A81104A82DF06EFE9E
:100DC000029BEBB198F80430013B012B18D80021AD
:100DD000D8F8000006F0BAFA90B1BDF8102047F23A
:100DE00030539A4203D0BDF812209A4206D196F9A8
:100DF000F639ABBB012386F8F539C3E00B232FE0AE
:100E0000029B002786F8F8790BB1BB4611E00C2352
:100E1000237029E04FEAC70908EB090301931B7906
:100E2000B14A5D1EEDB22A41D20706D40A232370CF
:100E30000137029B9F42EDDB16E01D2DF6D896F898
:100E4000882B012A0ED1163B032B00F2A180A74963
:100E500058F8090006F07AFA002840F09980DD235E
:100E600023708FE01B3BEFE794F90030002B09DB88
:100E700004A9304603F086FE00B1207094F90030DA
:100E8000002B08DA039B1B78072B24D900252C465E
:100E9000DFF870A22DE0944FDFF85882002347FA64
:100EA00003F212F0010F03F1010510D013F808301E
:100EB00010AA02EB430203F2D34332F8322C36F885
:100EC0001330934203D0E9B2304604F026F81E2DC9
:100ED0002B46E4D1D6E7F123C2E7834B43FA0BF369
:100EE000DB071CD40BF1010BBBF11E0FF5D1182D44
:100EF00049D0012303FA05F87D4B08EA03030135C5
:100F0000002BF4D001341B9A7849E4B2631E02EB43
:100F1000C3074FF0000B3D7142F83310DDE75AF87C
:100F20002B3018EA030FDDD0724BD7F800901BF876
:100F300003306E4903F2D343484636F81330019329
:100F400006F004FA019B60B14FF6FF72934208D09D
:100F5000184606F00FF80146674806F017F93860A2
:100F6000C0E7184606F006F80146634806F00EF999
:100F700001460190484606F0F3F90028B2D0019BE3
:100F80003B60AFE70024039B1C7011B0BDE8F08FFD
:100F9000012303FA05F51BEA050F01D0F32346E709
:100FA00058F809105448B6F858AB06F0EFF832F08C
:100FB000B9FC06F039FA4BEA050B85B2284605F074
:100FC00061FB47A3D3E9002305F0D6FB04F062FBE5
:100FD00005F0AAFE80B22B1A9BB29A4503DD284485
:100FE00080B282450ADB414958F8090006F0AEF9A3
:100FF00020B9B5F5E16F1CBF0E23237058F8099096
:101000000021484606F0A2F908B1F6230CE0374962
:10101000484606F09BF900283CD13849484606F07E
:10102000BDF9002852D0F22323700021484606F073
:10103000B5F978B32D49484606F092F950B34FF010
:101040000009019B2B4A1B79134413F8013C4B44C4
:1010500006EB4303B3F814AA504605F013FB20A394
:10106000D3E9002305F088FB04F014FB05F05CFED7
:1010700080B2C0EB0A039BB29D4203D3504480B2BE
:10108000854212D909F11709B9F18A0FD9D1F42390
:1010900023700AE0002148464FF0010506F056F99A
:1010A00008B14FF000056D42ADB294F90030002B4D
:1010B000FFF6BEAE019B0F4A1B79134410AA13F82A
:1010C000013C02EB430323F8325CB1E60C4948468D
:1010D00006F046F90028A8D0A5E700BFAFF30080CE
:1010E0007B14AE47E17A843FEF79F23F00FF7F4700
:1010F0000F20E0004C8E03080000C8420000204191
:101100000E74DA3AD48D0308F8B54E1E0F49069FC7
:101110000446885D00F21921451EF13004EBC00041
:1011200044F82170C0E90023079832F0FBFB06F079
:101130007BF92544012385F8C80803FA06F1D4F8A1
:10114000E0381943C4F8E018F8BD00BF4C8E03081E
:10115000194B013970B55C5C00EB44044FF6FF732A
:10116000B4F8E6289A4201D1002070BD134BD0F8A4
:10117000E45833F91130AB43F6D1114BD0F8C42801
:1011800053F821309343EFD1B4F84039B4F83269C1
:1011900001339BB2B3FBF6F206FB12339BB2A4F809
:1011A0004039002BE0D1012303FA01F12943C0F8B3
:1011B000E418184670BD00BFD88C0308E48C0308FF
:1011C000FC8C0308013910B414461A460A292DD89C
:1011D000DFE801F00A15062C0F2C2C2C1A20260013
:1011E000214610BC02F068BB2146483010BC01F01B
:1011F000B9BD214600F5CC7010BC03F0F7B921460B
:101200002C3010BC02F0CEBD214600F5987010BC09
:1012100003F06AB8214600F5E87010BC02F0ADBCDE
:10122000214600F5F47010BC00F0E1BF6FF06300E0
:1012300010BC70472DE9F04FAFB000250C93002390
:101240008B46C0F8E438052104460B9210951195A1
:101250001295289529952A952B952C952D951395C2
:1012600014958DF83C308DF83D308DF83E30FFF709
:101270006FFFDFF830A6002862D0584605F07EFEEA
:101280000146D4F8640806F061F8002858D004F547
:10129000ED63D3E900670DF13E03039314AB0293B2
:1012A0000DF13D0301930FAB3246009304F5CC7072
:1012B0003B4603F0BFF99AF80B809DF83C0008F21A
:1012C00019230D9305F056FE08F1FF390D9B08F127
:1012D000F10804EBC80844F82300C8E90067284671
:1012E00032F020FB06F0A0F8A1449AF80C8089F8AF
:1012F000C808D4F8E0389DF83D0043F40063C4F812
:10130000E03808F219230D9305F034FE08F1FF3997
:101310000D9B08F1F10804EBC80844F82300C8E964
:101320000067284632F0FEFA06F07EF8A14489F8FC
:10133000C808D4F8E03843F48053C4F8E03803E038
:101340004FF0FF366FF0004703212046FFF700FF04
:10135000B8B1584605F012FE0146D4F8640805F00D
:10136000F5FF70B112AB029311AB019310AB009378
:10137000D4F85028D4F84C38D4F85418204602F049
:10138000B5FA01212046FFF7E3FE002836D0584683
:1013900005F0F4FD0146D4F8640805F0D7FF68B302
:1013A00013AB069328AB05930021D4F86038D4F82A
:1013B0005C08049304F148084FF0010905F0C6FFEA
:1013C00008B14FF000095FFA89F303939DF83E30AE
:1013D00002939DF83D3001939DF83C300093119AA3
:1013E000129B1099404601F01AFD139B0093019542
:1013F00032463B4612212046FFF786FE0221204658
:10140000FFF7A6FE00284CD0584605F0B7FD014670
:10141000D4F8640805F09AFF002842D01EAB04936C
:101420001CAB03931AAB029318AB019316AB00935A
:1014300028AA149B139904F12C0002F0CCFC179BF2
:101440000193169B009332463B4601212046FFF74D
:101450005BFE199B0193189B009332463B46022189
:101460002046FFF751FE1B9B01931A9B00933246C7
:101470003B4603212046FFF747FE1D9B01931C9B23
:10148000009332463B4604212046FFF73DFE1F9B5A
:1014900001931E9B009332463B4615212046FFF7E1
:1014A00033FE09212046FFF753FE30B3584605F0BE
:1014B00065FD0146D4F8640805F048FFE8B104F57D
:1014C000EC63D3E90089D4F858380393B4F84A3070
:1014D000029332463B46D4F85018CDE9008904F512
:1014E000987002F03AFF01950646009042464B463E
:1014F0000E212046FFF708FE00E000260A212046C4
:10150000FFF726FEF0B1584605F038FD0146D4F845
:10151000640805F01BFFA8B104F5EC63D3E900896A
:101520003246D4F84C38D4F8501804F5E87002F07C
:101530003EFB01951090009042464B460F212046FD
:10154000FFF7E2FD0B212046FFF702FE002800F026
:10155000218104F5ED63D3E9006715AB08930DF124
:101560003F03079324AB069320AB05939DF8E0302F
:1015700004930C9B0393D4F848380293D4F84C3866
:101580000193D4F85038D4F854180093D4F8642850
:101590000B9B04F5F47000F0A5FE0B9B581EC0B227
:1015A00005F0ECFC0146D4F8640805F0CFFE0028F5
:1015B00000F0F080B4F822294FF6FF739A4217D05A
:1015C0009AF8153020989DF83F1003F2192244F83C
:1015D000220003F1F102234404EBC202C2E90067D6
:1015E00083F8C718D4F8E03843F40013C4F8E0389F
:1015F000B4F824294FF6FF739A4217D09AF81630A0
:1016000021989DF83F1003F2192244F8220003F1BB
:10161000F102234404EBC202C2E9006783F8C71851
:10162000D4F8E03843F48003C4F8E038B4F826294D
:101630004FF6FF739A4217D09AF8173022989DF808
:101640003F1003F2192244F8220003F1F10223446F
:1016500004EBC202C2E9006783F8C718D4F8E03887
:1016600043F40003C4F8E038B4F828294FF6FF73B8
:101670009A4217D09AF8183023989DF83F1003F239
:10168000192244F8220003F1F102234404EBC202C0
:10169000C2E9006783F8C718D4F8E03843F08073D4
:1016A000C4F8E038B4F82C294FF6FF739A4217D0EB
:1016B0009AF81A3024989DF8541003F2192244F82D
:1016C000220003F1F102234404EBC202C2E90067E5
:1016D00083F8C718D4F8E03843F08063C4F8E038E2
:1016E000B4F82E294FF6FF739A4217D09AF81B30A0
:1016F00025989DF8551003F2192244F8220003F1B1
:10170000F102234404EBC202C2E9006783F8C71860
:10171000D4F8E03843F00063C4F8E038B4F8302976
:101720004FF6FF739A4217D09AF81C3026989DF80E
:10173000561003F2192244F8220003F1F102234467
:1017400004EBC202C2E9006783F8C718D4F8E03896
:1017500043F08053C4F8E038B4F832294FF6FF73F1
:101760009A4217D09AF81D3027989DF8571003F227
:10177000192244F8220003F1F102234404EBC202CF
:10178000C2E9006783F8C718D4F8E03843F0005383
:10179000C4F8E0389AF8053004EB4303B3F80429A1
:1017A0004FF6FF739A420FD0D4F8C4385E070BD5BA
:1017B000D4F85028019504F5EC630092D3E9002396
:1017C00006212046FFF7A0FC9AF8063004EB4303FD
:1017D000B3F804294FF6FF739A420FD0D4F8C438F7
:1017E000D8070BD5D4F84828019504F5EA63009290
:1017F000D3E9002307212046FFF786FC9AF807303B
:1018000004EB4303B3F804294FF6FF739A420FD059
:10181000D4F8C43899070BD5D4F84C28019504F5B1
:10182000EB630092D3E9002308212046FFF76CFC0C
:101830009AF8083004EB4303B3F804294FF6FF731A
:101840009A420FD0D4F8C4381A070BD5D4F85428CC
:10185000019504F5ED630092D3E9002309212046A8
:10186000FFF752FC9AF8193004EB4303B3F804294C
:101870004FF6FF739A420FD0D4F8C4381B020BD531
:10188000D4F86428019504F5F1630092D3E90023AC
:101890001A212046FFF738FC0023C4F8C4382FB0C3
:1018A000BDE8F08F4C8E030810B5013914461A4676
:1018B0009DF808300A2934D8DFE801F00B18063308
:1018C000113333331E252C002146BDE8104002F0B1
:1018D0005FB821464830BDE8104001F07FBD214689
:1018E00000F5CC70BDE8104002F036BF21462C3028
:1018F000BDE8104002F04EBB214600F59870BDE8EF
:10190000104002F0B1BD214600F5E870BDE810407E
:1019100002F08CB9214600F5F470BDE8104000F0EB
:1019200073BF002010BD10B5013914461A469DF84A
:1019300008300A2934D8DFE801F00B1806331133D8
:1019400033331E252C002146BDE8104002F051B86B
:1019500021464830BDE8104001F0C4BD214600F5E5
:10196000CC70BDE8104002F038BF21462C30BDE8F5
:10197000104002F03FBB214600F59870BDE81040D2
:1019800002F0C3BD214600F5E870BDE8104002F04A
:101990007EB9214600F5F470BDE8104000F0D2BFDA
:1019A000002010BD30B5D0F864480C6000F5F1613E
:1019B000D1E90045C2E90045D0F8C428C2F3C052BD
:1019C0001A7030BDF0B501390E4C645C04F2192573
:1019D00050F82550156004F1F10200EBC202D2E983
:1019E0000067C3E900670444059B94F8C7281A7090
:1019F000012303FA01F1D0F8E03823EA0103C0F82B
:101A0000E038F0BD4C8E03082DE9F74FDFF8F0C049
:101A1000374F002140F2177848FA01F3DB0761D510
:101A20007D5C00EB45054FF6FF76B5F8E628B2423F
:101A300058D000244FEA410A23464FF0010B01968B
:101A40000BFA04F940F2177E09EA0E0EBEF1000F00
:101A500012D0284E3AF906E01EEA090F0CD0244EA7
:101A600016F804E0019E0EF2734E30F81EE0B64503
:101A700002D07345B8BF734601340B2CE0D14FEA56
:101A8000810900244FF0010A4FF6FF7B1A4E0AFA33
:101A900004FE0EEA06067EB159F80C601EEA060F37
:101AA0000AD0164EA65D00EB4606B6F8F4685E4511
:101AB00002D0B342B8BF33460134182CE6D18BB103
:101AC000B2FBF3F413FB04F6921B92B242B1C3F3E0
:101AD0004F0603F0010333449A42A4BF0134A4B279
:101AE000A5F8324901310B2996D103B0BDE8F08F3A
:101AF000D88C0308E48C03080F20E000BC8D030899
:101B0000FC8C030800F6321270B500F51461134620
:101B1000012600254FF6FF7423F8026F8B42DD810A
:101B200023F84C4CF8D100F6F4034FF6FF7100F6A1
:101B3000041023F8021F9842FBD14FF6FF7320F8E0
:101B4000023F8242FBD170BDF8B5044601F0A8FE09
:101B500004F5CC7002F028FD04F12C0002F09EFA8E
:101B600004F1480001F056FD04F5987002F074FB92
:101B70000A2104F5E87001F0F5FF04F5F47000F0B7
:101B8000BFFA002604F6440104F5E96304F5F162A6
:101B90000020002741F8040FE3E9026793424FF069
:101BA000000CF7D10023C4F8C43804F6640504F629
:101BB000C700002600279E460133172B45F804CFA7
:101BC0004FF00001E2E9026700F801EFF4D120468E
:101BD000C4F8E018C4F8E418FFF794FF2046F8BDF5
:101BE000013910B414461A460A292DD8DFE801F04D
:101BF0000A15062C0F2C2C2C1A202600214610BC6E
:101C000001F028BF2146483010BC01F0E3BD214659
:101C100000F5CC7010BC02F071BE21462C3010BC17
:101C200002F074BA214600F5987010BC02F0A2BC14
:101C3000214600F5E87010BC02F059B8214600F5C5
:101C4000F47010BC00F0D9BE6FF0630010BC704798
:101C50002DE9704301391D46104B9DF81C605B5CFB
:101C600014465A1E00EBC30303F5E963D3E9008968
:101C7000A94508BFA04500D176B102F21222069E06
:101C800040F82260C3E90045012303FA01F1D0F8CE
:101C9000C4381943C0F8C418BDE87083BC8D03086C
:101CA0004B1EDAB20A2A9BBF124A89184FF6FF71FF
:101CB00011F8012C9CBF02F2734230F81210092B6C
:101CC00016D8DFE803F0070E05150A1515151511CE
:101CD00001F0DABE483001F021BD00F5CC7002F011
:101CE000DDBD2C3002F0E4B900F5E87002F018B860
:101CF000704700BFD88C030801391F4B5B5C00EBB9
:101D00004303F0B51D4FDFF880E0A3F80429012656
:101D1000002306FA03F540F217742C406CB137F932
:101D200011402C4209D01EF8034000EB4404B4F8E3
:101D3000E658954288BFA4F8E62801330B2BE8D17A
:101D40000F4FDFF848E0002301260E4C06FA03F59A
:101D50002C406CB157F82140254209D01EF80340B1
:101D600000EB4404B4F8F458954288BFA4F8F42872
:101D70000133182BE9D1F0BD4C8E03086A8E03089D
:101D8000D48D03080F20E000D88C0308BC8D030815
:101D900030B5D0F854480C6000F5ED61D1E900454C
:101DA000C2E90045D0F8C428C2F3C0021A7030BDA1
:101DB0004B1E0A2B9BBF124A89184FF6FF7111F870
:101DC000012C9CBF02F2734230F81210092B16D876
:101DD000DFE803F0070E05150A151515151101F0BA
:101DE00053BE483001F09ABC00F5CC7002F056BDED
:101DF0002C3002F05DB900F5E87001F091BF70473A
:101E0000D88C030830B5D0F85C480C6000F5EF6161
:101E1000D1E90045C2E90045D0F8C428C2F34052D8
:101E20001A7030BD10B50446FFF78EFE204603F051
:101E30000FFA204603F0A1F8204610BD2DE9F74F18
:101E40009DF830A00646884691461F4600244FF074
:101E5000280BBC4218DA08EB84030025554511DA3B
:101E60000BFB05F259F825109858019305F0DAF8A4
:101E7000014656F8240004F0CDFF013546F8240051
:101E8000019BEBE70134E4E703B0BDE8F08F2DE9F7
:101E9000F0479DF820A00646884691461F4600243C
:101EA000BC4215DA0025554510DA04EB850359F8D4
:101EB000251058F8230005F0B5F8014656F824001F
:101EC00004F0A8FF013546F82400ECE70134E7E709
:101ED000BDE8F0872DE9F0418AB006460D46DDE900
:101EE0001001174604F0F8FE3044129CC378012B11
:101EF00017D009D3022B65D12946282268462CF039
:101F0000CDFD0125009E2DE02E1F043C243556F802
:101F1000041F002031F0E8FAB54244F8040FF6D16E
:101F200055E02822294620462CF0B8FD0026B7426D
:101F30004DDD4FF0404155F8260005F073F831F0C3
:101F4000A7F94FF07E5104F065FF01464FF0804045
:101F500005F01CF94FF07E5104F05AFF44F82600BA
:101F60000136E4E75DF825803146404605F016FA73
:101F700000B1464601350A2DF4D10025AF420ADDF5
:101F80005DF82500314604F043FF31F081F94DF84A
:101F900025000135F2E7009E01255DF82510304649
:101FA00004F038FF01350A2D0646F6D100255DF80C
:101FB0002500314605F0EAF844F8250001350A2DE0
:101FC000F5D104E02822294620462CF067FD0AB00E
:101FD000BDE8F0812DE9F0431C468379012B85B0E3
:101FE0000E46174617D002D3022B34D081E0096881
:101FF000002031F079FA20607168002031F074FA25
:102000006060B168002031F06FFAA060F1680020D4
:1020100031F06AFA6BE0102220462CF03FFD0025DB
:10202000AF426ADD4FF0404156F8250004F0FAFF58
:1020300031F02EF94FF07E5104F0ECFE01464FF0E6
:10204000804005F0A3F84FF07E5104F0E1FE44F823
:1020500025000135E4E7102268462CF01FFD009DA5
:10206000019E2946304605F099F900B13546029E99
:102070002946304605F092F900B13546039E2946BF
:10208000304605F08BF900B135460026B7420ADD2F
:102090005DF82600294604F0BBFE31F0F9F84DF852
:1020A00026000136F2E7DDF80090DDF80480029F9B
:1020B000039E4146484604F0ADFE394604F0AAFEB0
:1020C000314604F0A7FE05460146484605F05EF895
:1020D00029462060404605F059F829466060384698
:1020E00005F054F82946A060304605F04FF8E0604E
:1020F00003E0102220462CF0D1FC05B0BDE8F083AF
:102100000B230370002343708370C370012303719A
:102110004371022330B58371011D00F12C020024AC
:1021200041F8044F91424FF00003F9D100F15404FB
:1021300042F8043FA2424FF00001F9D10246816506
:10214000C16501664FF07E5542F8641F00F51B71B2
:1021500042F8045F91424FF07E54F9D100F57F724E
:1021600041F8044F8A42FBD100F29C4142F8044FEF
:102170009142FBD10A2280F8A02480F8A1240422F5
:1021800080F8A22400F5946100F2D44241F8043FA3
:102190008A42FBD100F5A16142F8044F9142FBD184
:1021A000C0F80C35C0F81035C0F81435C0F8183533
:1021B000C0F81C35C0F82035C0F82435C0F82835E3
:1021C00000F5A56100F5AA6441F8043F8C424FF088
:1021D0000002F9D1002380F85435012380F85535E9
:1021E000C0F85825C0F85C25C0F8602530BD2DE941
:1021F000F04786B004AB05AD044600780093019526
:102200000DF10F030E4602F0CDFB9DF90F30002BB0
:1022100063D1012704F21C5804F20C5904F59B6A9F
:10222000FBB2013B0D2B50D8DFE803F007090C137C
:10223000161D242B32353B41474D221D23E004F16E
:10224000080201E004F130022946304603F072FC36
:1022500040E004F1580239E004F1680229463046B2
:1022600003F07AFE36E004F51C722946304603F08E
:10227000B7FE2FE004F580622946304603F0EBFEFE
:1022800028E004F594622946304603F021FE21E05F
:1022900004F2A44200E052462946304603F013FF00
:1022A00018E02946304603F0E8FB607012E029464A
:1022B000304603F0E2FBA0700CE02946304603F004
:1022C000DCFBE07006E04A4600E042462946304624
:1022D00003F025FD0137102FA2D19DF90F0006B0A4
:1022E000BDE8F0872DE9F04FBDB09A469DF8283142
:1022F00004934D9B4C9F4E9E4FF0000883F8008046
:102300004B9B00251D6004463D60104686F800800A
:102310005D607D6086F801809D60BD6086F802800A
:10232000DD60FD6086F80380894631F0FBFA05F038
:102330007BF894F855350130C0B2D3B1012840F094
:102340006082E37884F8558584F8548513B1469B00
:10235000C4F85835637813B1479BC4F85C35A3784B
:102360003BB1489BC4F8603594F85535002B40F0DC
:10237000488294F854250AF101030132D2B2DBB24B
:10238000B2FBF3F103FB1123DBB2984240F0308241
:1023900004EB8003504584F85405C3F8289540F0B9
:1023A0003082049B012B4FF000036AD122AA42F82D
:1023B000235001330D2BF9D12FAB0EAA0AA900939C
:1023C0009DF8240118AB01F0A1FB0A9830F086FFBC
:1023D00080460B9830F082FF414604F019FD04F569
:1023E000A56B81464FF0000A5BF8040F30F076FFD2
:1023F000414604F00DFD494604F0C8FE22AB43F807
:102400002A000AF1010ABAF10A0FEDD1E37883B18B
:10241000DDF83880D4F85805414604F0F9FC41460F
:1024200081460F9804F0F4FC0146484604F0AEFEE5
:102430002D90637883B1DDF86080D4F85C05414667
:1024400004F0E6FC41468146199804F0E1FC01469F
:10245000484604F09BFE2C90A378002B4AD0DDF870
:10246000BC80D4F86005414604F0D2FC4146814668
:10247000309804F0CDFC0146484604F087FE2E90CB
:1024800038E00DF1BC0949F8235001330D2BFAD186
:10249000282204F22C5148462CF000FBD4F85C357D
:1024A0003993D4F858353A93D4F860353B9304F215
:1024B000D44B4FF000085BF804AF0021504604F005
:1024C00045FF22AB68B95BF8341C59F82800059326
:1024D00004F09EFC514604F059FE059B43F8280089
:1024E00003E059F8282043F8282008F10108B8F142
:1024F0000D0FE0D10DF1380894F8A0A494F8A1B420
:1025000094F8A294282204F1080140462CF0C6FA5F
:102510000D23009322AA534604F168014046FFF7B9
:102520008DFC18AB0293AF4B0022CDE9002341464E
:1025300052462046FFF7CEFCBBF1000F25D02822E3
:1025400004F130012FA82CF0A9FA5B4618AA04F573
:102550001C712FA8CDF800A0FFF770FC4FF080434E
:102560000022CDE900232FA95A462046CDF8088045
:10257000FFF7B0FC102204F158010AA82CF08EFAE3
:10258000CDF800B04B46424609E0102204F1580154
:102590000AA82CF083FACDF800A04B4618AA04F53F
:1025A00080610AA8FFF773FC06AB4A460AA92046D9
:1025B000FFF710FD049B012B40F0F9803D60D4F83B
:1025C0000C85D4F81C954046494604F0BFFE00280F
:1025D00031D14146484604F01BFC069904F022FD27
:1025E000414604F017FC002130F07EFF7E49386040
:1025F0008246484604F016FD7C4904F0C7FD494672
:1026000004F008FC0146504604F0C8FE78B976494B
:10261000404604F007FD754904F0B8FD0146404608
:1026200004F0F6FB0146504604F09AFE08B102237E
:1026300000E0032333707D60D4F81085D4F8209532
:102640004046494604F082FE002831D141464846C2
:1026500004F0DEFB079904F0E5FC414604F0DAFBE8
:10266000002130F041FF604978608246484604F01E
:10267000D9FC5E4904F08AFD494604F0CBFB0146D3
:10268000504604F08BFE78B95749404604F0CAFC26
:10269000564904F07BFD0146404604F0B9FB014673
:1026A000504604F05DFE08B1022300E0032373707E
:1026B000BD60D4F81485D4F824954046494604F00A
:1026C00045FE002831D14146484604F0A1FB089957
:1026D00004F0A8FC414604F09DFB002130F004FF0B
:1026E0004149B8608246484604F09CFC3F4904F0EA
:1026F0004DFD494604F08EFB0146504604F04EFE67
:1027000078B93949404604F08DFC384904F03EFD63
:102710000146404604F07CFB0146504604F020FE92
:1027200008B1022300E00323B370FD60D4F81885DC
:10273000D4F828954046494604F008FE002831D1D7
:102740004146484604F064FB099904F06BFC41469D
:1027500004F060FB002130F0C7FE2349F860824698
:10276000484604F05FFC214904F010FD494604F09E
:1027700051FB0146504604F011FE78B91A49404613
:1027800004F050FC194904F001FD0146404604F0F4
:102790003FFB0146504604F0E3FD08B1022300E090
:1027A0000323F37004F5A56304F5AA6208E0102280
:1027B00006A94B982CF072F94D9A03231370F1E798
:1027C00043F8045F9342FBD1002384F8543501237E
:1027D00084F85535C4F85855C4F85C55C4F86055AC
:1027E0000FE000BF0000F03F000020410000C842A1
:1027F00004F5A56304F5AA6243F8045F9342FBD194
:10280000E2E73DB0BDE8F08F2DE9FF4705461646EB
:1028100004AA0F2002F8090D28780C4602F0E8F807
:102820009DF807800390002305F21C5905F20C5A0D
:10283000434575DA5F1CFBB2013B0E2B6ED8DFE817
:1028400003F0080F151D232B333B434951565B62A0
:10285000670003AB32462146281D03F0DDFA5DE038
:1028600003AB3246214605F1080004E003AB3246D3
:10287000214605F1300003F093F94FE003AB3246F7
:10288000214605F1580047E003AB3246214605F1E9
:10289000680003F035FB41E003AB3246214605F505
:1028A0001C7003F073FB39E003AB3246214605F59B
:1028B000806003F0ADFB31E003AB3246214605F505
:1028C000946003F0DEFB29E003AB3246214605F2BB
:1028D000A44004E003AB3246214605F59B6003F0BB
:1028E00007FC1BE003AB32462146687808E003ABE7
:1028F00032462146A87803E0E87803AB3246214609
:1029000003F0CEF80AE003AB32462146504603E01E
:1029100003AB32462146484603F0BCFA3B4687E704
:1029200004A9039B21F8063D022202A82CF0B6F868
:102930009DF80830237003989DF80930637004B047
:10294000BDE8F0872DE9F04385B00546174604AA97
:10295000062002F8090D28780C4602F049F89DF887
:1029600007800390002305F22C59434533DA5E1C9F
:10297000F3B2013B052B2CD8DFE803F0030A101853
:102980001E2403AB3A462146484603F009F920E0ED
:1029900003AB3A46214695F8540504E095F85505F1
:1029A00003AB3A46214603F07BF812E003AB3A460C
:1029B0002146D5F858050AE003AB3A462146D5F83A
:1029C0005C0504E0D5F8600503AB3A46214603F008
:1029D0002AF83346C9E704A9039B21F8063D0222E1
:1029E00002A82CF05BF89DF80830237003989DF83E
:1029F0000930637005B0BDE8F0832DE9F04186B081
:102A000004AB05AD04460078009301950DF10F036A
:102A10000E4601F0C7FF9DF90F30B3BB012704F24A
:102A20002C58FBB2013B042B26D8DFE803F0030946
:102A300010171E0042462946304603F07BF821E07D
:102A40002946304603F019F884F854051AE029465F
:102A5000304603F012F884F8550513E02946304655
:102A600002F0C5FFC4F858050CE02946304602F0D4
:102A7000BEFFC4F85C0505E02946304602F0B7FF0A
:102A8000C4F860050137072FCBD19DF90F0006B0C0
:102A9000BDE8F081F8B500EB83040D46E76800213E
:102AA0003846164604F052FC38B93946606804F0DE
:102AB000AFF9294630F018FD05463146606804F04C
:102AC000A7F9002130F010FDE1680746304604F018
:102AD0009FF9002130F008FD0146384630F016FD20
:102AE000014604F097F9294604F050FB4FF07E515F
:102AF000BDE8F84030F00ABD2DE9F04F85B005463D
:102B000002930F469DF840305E4940680393164695
:102B100004F088FA029B9DF83880834633B908F1A7
:102B2000030355F8231004F075F90BE0336803F143
:102B30000043336008F1010307F1004755F8231003
:102B400004F066F931688146384604F061F90446BC
:102B5000688804F00FFA4C4904F018FB05EB880A6A
:102B600001904A49DAF8180004F0F0FBA0B13946A8
:102B7000DAF8040004F04CF9002130F0B5FC01460D
:102B80004FF07E5004F044F9014604F04BFA4FF048
:102B90007D5104F047FA01E04FF07E503C4904F0CB
:102BA00041FA3C4904F036F9594604F03BFA014633
:102BB000584604F02FF900210746204604F0EEFBAA
:102BC00028B3B8F1010F09BF9DF83C30DFF8CC8085
:102BD00005EB8303D3F82880039B33B9394620469D
:102BE00004F0DCFB08B1DFF8B4802B49686804F01E
:102BF00019FA414604F0CAFA019904F013FA05469D
:102C00000146204604F0CAFB40B32C4626E0039B55
:102C10008BB9204630F019FC0146384604F0A0FB81
:102C200048B1B8F1010F06D11849D5F8D00004F029
:102C3000ADFA014601E0DAF8CC10019B03F1004047
:102C400004F0A4FA30F024FB01464FF07E5004F06B
:102C5000DFF80146204604F0E5F9044631682046D5
:102C600004F0D8F804460146484604F097FB00B14A
:102C70004C46029B0BB104F10044346005B0BDE842
:102C8000F08F00BFC178C63D0000C8420000404040
:102C9000CDCC4C3ECDCCCC3DCBBECB3E0000E144B8
:102CA0002DE9F0479DF820506C1E00EB8505064687
:102CB0008946A869284990461F4604F047FB68B139
:102CC00039464FF07E5004F0A3F8014604F0AAF90B
:102CD0004FF07D5104F0A6F9824601E04FF07E5A94
:102CE000EF686868394604F093F81C490546504679
:102CF00004F098F91A4904F08DF8494604F092F965
:102D0000494604F087F80146284604F029FB34447C
:102D100020B90021384604F019FB30B196F8D830BC
:102D200023764FF07E50BDE8F087B8F1000F01D058
:102D3000207609E0237EFF2B1CBF01332376227E01
:102D400096F8D8309A4203D24FF08040BDE8F08721
:102D50000148BDE8F08700BF00004040CDCC4C3EAC
:102D6000CDCCCC3D2DE9F04786B004AB05AD044693
:102D70000078009301950DF10F030E4601F012FE4D
:102D80009DF90F30002B45D1012704F1B80804F15B
:102D9000A80904F1940AFBB2013B0A2B32D8DFE800
:102DA00003F0060910131A1D202326292F0004F111
:102DB000D00201E004F1C8022946304602F070FD5D
:102DC00025E004F138021EE004F1DA02294630461B
:102DD00002F0D2FF1BE004F1E002EDE704F148024B
:102DE00011E004F1580206E004F16C0203E004F182
:102DF000800200E052462946304602F0F6FF06E027
:102E00004A4600E042462946304602F088FF013734
:102E10000D2FC0D19DF90F0006B0BDE8F0872DE958
:102E2000F04F95B0044607939DF8783009939DF8CC
:102E30007C3008939DF880300B910593A6499DF84E
:102E4000843040680A93914604F0ECF8A349239F2C
:102E5000249D0646484604F0E5F8A14980464846C8
:102E600003F0D8FF0146404604F090F930F010FA24
:102E70009C498046079804F0D5F89B4904F086F9F0
:102E8000414604F0CFF899498046484603F0C2FF16
:102E90000146404604F07AF9954904F0C3F8954993
:102EA000804604F07BFA20B1404630F03FFA0690AD
:102EB00002E04FF0404306936388B3F5967F2FD02E
:102EC00016D8642B41D10C2204F1940111A8D4F836
:102ED00044A0D4F854B02BF0E1FD082204F1A00185
:102EE0000FA82BF0DBFDD4F8B480D4F8C43040E058
:102EF000B3F5E16F29D10C2204F16C0111A8D4F8CB
:102F00003CA0D4F84CB02BF0C9FD082204F17801A4
:102F10000FA82BF0C3FDD4F8AC80D4F8BC3028E067
:102F20000C2204F1800111A8D4F840A0D4F850B0CC
:102F30002BF0B4FD082204F18C010FA82BF0AEFD9C
:102F4000D4F8B080D4F8C03013E00C2204F158015A
:102F500011A8D4F838A0D4F848B02BF09FFD08226F
:102F600004F164010FA82BF099FDD4F8A880D4F8DF
:102F7000B8305A490D93404604F054F858490C9023
:102F8000404603F047FF0C9A0146104604F0FEF855
:102F900030F07EF90D9B0C905249184604F042F82F
:102FA000514904F0F3F80C9A114604F03BF84F49EC
:102FB0000C90404603F02EFF0C9B0146184604F08F
:102FC000E5F84B4904F02EF830F0B0F900210C90F0
:102FD000A06804F0BBF90C9B002835D1194606986F
:102FE00003F016FF01460D9004F01CF8119904F04F
:102FF00019F80D9B12990C90184604F013F80C9ACE
:103000000146104603F006FF139903F003FF414603
:103010000C90484603F0FCFE334904F0B7F80F99D2
:1030200004F000F8109903F0F5FE0C9B01461846D9
:1030300003F0F8FF4FF07F5130F068FA4FF07C5109
:1030400030F052FA034601E04FF07E5359464846AD
:103050000C9303F0E7FF2449D4F8088004F096F8B5
:1030600051468346069803F0DDFF0146584603F0BB
:10307000D1FE01460B9803F0CBFE414603F0C8FE9B
:103080000C9B194603F0CEFF414603F0C3FE089B9C
:1030900028608046DBB10A9B002B40F0A3801649D4
:1030A000484604F067F9002846D01449484604F021
:1030B0006BF9002840D00C49079804F05BF9002810
:1030C0003AD00021079804F05FF9C8B934E00A9BB0
:1030D000002B40F087802FE0C178C63DC3F58C41BE
:1030E000B81E73438195C3400000C84233938843A0
:1030F00033B358430AD7233C0000AA42000020C241
:103100000021229804F022F9D4F82490002800F03D
:10311000B9800021484604F019F9002840F0D08019
:10312000208D03F027FF0146484603F071FE01465B
:10313000002030F0D9F96062D5F80090A1684846C7
:1031400004F022F9002840F03181216948464FF00F
:10315000010804F00FF908B94FF000085FFA88F889
:1031600001234A4631462046FFF794FC099A03465C
:10317000002A00F01E81089A002A00F01A8101221C
:103180000092314642462046FFF78AFDE061D5F8BD
:103190000090E168484604F0F7F8002840F00E81FE
:1031A000616948464FF0010804F0E4F808B94FF0AF
:1031B00000085FFA88F802234A4631462046FFF7A6
:1031C00069FC099A0346002A00F0FB80089A002A4D
:1031D00000F0F78002220092314642462046FFF777
:1031E0005FFD2062D4F808900021484604F0AEF854
:1031F00008B1D5F80090D4F80C80D4F81CA00021B8
:10320000404604F0A3F808B1D5F80080C7F8009054
:1032100025690021284604F099F808B9BD6004E04A
:103220003146484603F0F4FDB860C7F810A0C7F86F
:10323000048065690021284604F088F808B9FD601B
:1032400004E03146404603F0E3FDF860236A7B6109
:1032500094F83430012B40F0B9805E49504604F0B8
:1032600075F858B1059B4BB1D4F8C830E362D4F877
:10327000CC302363002384F83430A7E0564BE3625C
:103280002363A3E0229804F0A9F804EB40038046EE
:10329000B3F8D80003F06EFE0146484603F0B8FDCF
:1032A00008F13708824654F828002FF0F1FF014654
:1032B000504603F06BFF0146484603F0A9FD3AE78C
:1032C0000021A06804F042F808B1C4F80880002189
:1032D000206904F03BF860B13146A068D5F8008061
:1032E00003F096FD0146404604F03AF808B1C4F8F0
:1032F0001080059B02934FF0010802230193CDF843
:10330000008029682046002304F10802FFF7F4FB3F
:103310000021206904F01AF860B9059B0293CDF8EA
:103320000480CDF80080434604F11002296820464D
:10333000FFF7E2FB0021E06804F008F808B12B6811
:10334000E3600021606904F001F860B13146E06893
:10335000D5F8008003F05CFD0146404604F000F81B
:1033600008B1C4F81480059B02934FF00208CDF811
:103370000480CDF8008029682046002304F10C0267
:10338000FFF7BAFB0021606903F0E0FF00287FF43B
:10339000D3AE059B029301230193CDF8008004F185
:1033A000140229682046FFF7A7FBC5E64FF0010885
:1033B000D6E694F8D83023760020E7E64FF00108EF
:1033C000F9E694F8D830637600200AE715B0BDE836
:1033D000F08F00BF000040400000E1442DE9FF47AE
:1033E00005461646A84604AA0C2002F8090D18F84E
:1033F000B80B0C4601F0FCFA9DF8079003900023EF
:1034000005F1A80A4B455BDA5F1CFBB2013B0B2BB5
:1034100054D8DFE803F0060C141A22282E343A4060
:10342000484D03AB3246214605F1D00004E003AB22
:103430003246214605F1C80002F047FA3EE003ABF0
:103440003246214605F1380036E003AB32462146CC
:1034500005F1DA0002F012FC30E003AB32462146FF
:1034600005F1E000E8E703AB3246214605F14800EC
:1034700022E003AB3246214605F1580010E003ABD1
:103480003246214605F16C000AE003AB3246214684
:1034900005F1800004E003AB3246214605F19400BB
:1034A00002F01AFC0AE003AB32462146504603E024
:1034B00003AB32462146404602F0A7FB3B46A1E75C
:1034C00004A9039B21F8063D022202A82BF0E6FA8C
:1034D0009DF80830237003989DF80930637004B09C
:1034E000BDE8F0872DE9FF4705461646A84604AA21
:1034F0000B2002F8090D18F82C0B0C4601F078FA95
:103500009DF807900390002305F11C0A4B4553DA00
:103510005F1CFBB2013B0A2B4CD8DFE803F0060C22
:10352000141921262B32393F440003AB3246214681
:1035300005F1080004E003AB3246214605F1100016
:1035400002F0C3F936E003AB32462146688815E045
:1035500003AB3246214605F1180002F025FA29E0B6
:1035600003AB324621465046EAE703AB32462146DA
:10357000686A0AE0288D03AB3246214602F0DEF984
:1035800018E0686803AB3246214602F04CFA11E0BD
:1035900003AB3246214695F8D80009E003AB32462A
:1035A00021464046CCE795F8340003AB324621462D
:1035B00002F076FA3B46A9E704A9039B21F8063DF1
:1035C000022202A82BF06AFA9DF8083023700398B3
:1035D0009DF80930637004B0BDE8F0874FF6FF73C3
:1035E0000022438000230A4943620285436002228D
:1035F00083600361C361C36043610362012380F898
:10360000D8200276C1624276016380F83430704778
:103610000000E144012303702F4B83632F4BC363EE
:103620002F4B03642F4B436400238364C3640365FF
:103630008365C3654366C36603678367C0F88030EC
:10364000C0F88430C0F88C30274BC0F89430274B3A
:10365000C0F89830264B274AC0F89C30264B42656C
:10366000C0F8A0304FF07E52244B0266826642675B
:10367000C267C0F88820C0F89020C0F8A430204A63
:10368000204BC0F8A83010B5C0F8AC20C0F8B0305E
:10369000C0F8BC30C0F8C4301B4BC0F8C830C0F80C
:1036A000CC301A4BC0F8D030194BC0F8D4300A23B4
:1036B000A0F8DA300323A0F8DC30164BC0F8E03075
:1036C000154BC0F8B420C0F8B820C0F8C020C0F82E
:1036D000E430FFF783FF10BD894100BFCDCCCCBEE5
:1036E000000040BFE17A94BE52499DBC5F29CB3DAA
:1036F00076E06C3FCDCCCCBD9BE67D3FBF0E7C3FE2
:10370000000020420000A0410000614500C0A84721
:103710004031774C0000604017B7D13838B54FF6CC
:10372000FF73994205460C464BD043888B4248D0E4
:10373000B1F5967F698006D0B1F5E16F05D06429B7
:1037400003D0204802E0204800E020486423B4FB76
:10375000F3F303EB830202EB8202A4EB820292B248
:10376000312A84BF01339BB22B852FF0DFFD2FF070
:103770006CFE174903F00AFD68609CB147F23050B7
:10378000B0FBF4F014FB00F3C3F5EA4330339BB213
:1037900053B104F0010202EB5404A34204DB0130F4
:1037A00080B201E04FF6FF7003F0E4FB2FF033FE30
:1037B000014603F02FFB30F075F803F035FE85F875
:1037C000D80038BD304C463F0AD7233F9A99193F5D
:1037D000502C633E2DE9F04786B004AB05AD04469E
:1037E0000078009301950DF10F030E4601F0DAF811
:1037F0009DF90F30002B4DD1012704F12C0804F165
:103800001C0904F1180AFBB2013B092B39D8DFE887
:1038100003F005080F151B1D23292F3604F108029C
:1038200001E004F110022946304602F039F82EE09A
:103830002946304602F06BF8608028E0524629465F
:10384000304602F09CF822E04A46ECE72946304632
:1038500002F0CDF860621AE02946304602F057F8CF
:10386000208514E02946304602F0C1F860600EE081
:103870002946304602F001F984F8D80007E04246B4
:10388000D1E72946304602F0F8F884F834000137D1
:103890000C2FB8D19DF90F0006B0BDE8F08700BF2E
:1038A00010B50323044600F8043B02F037FD204620
:1038B00001F026FF204610BD70B586B004AB05AC04
:1038C00005460078009301940DF10F030E4601F0B8
:1038D00069F89DF90F302BB905F1200221463046D9
:1038E00001F0ACFF9DF90F0006B070BD2DE9F84F57
:1038F0000D4604462549DDF828800B9F0C9E28467E
:103900009246994603F036FD00B1204D2069002112
:1039100003F01CFD38B128462FF008FDC4F814A0B0
:103920002061C4F818902846D4F804B02FF0FEFCAB
:103930002569294603F06CFA594603F073FB2946C2
:1039400003F068FAC8F8000065695046294603F09C
:103950005FFAA16803F066FB294603F05BFA386062
:10396000A5694846294603F053FAE16803F05AFB7B
:10397000294603F04FFA3060D8F8003023613B68E5
:1039800063613368A361BDE8F88F00BF0000204188
:103990002DE9FF419046064604AA012402F8094D8C
:1039A00016F8200B0D4601F023F89DF807700390E0
:1039B0000023BB420BDA5C1CE3B2012B05D103AB45
:1039C00042462946304601F04EFF2346F1E704A95E
:1039D000039B21F8063D022202A82BF05FF89DF818
:1039E00008302B7003989DF809306B7004B0BDE867
:1039F000F0812DE9FF419046064604AA012402F811
:103A0000094D16F8100B0D4600F0F2FF9DF80770F7
:103A100003900023BB420BDA5C1CE3B2012B05D1FF
:103A200003AB42462946304601F01DFF2346F1E72D
:103A300004A9039B21F8063D022202A82BF02EF8D0
:103A40009DF808302B7003989DF809306B7004B016
:103A5000BDE8F08170B586B004AB05AC05460078D2
:103A6000009301940DF10F030E4600F09BFF9DF9AA
:103A70000F302BB905F110022146304601F0DEFE71
:103A80009DF90F0006B070BDF0B5044685B008463C
:103A900003F070FA01461C4803F078FB4FF07C51AC
:103AA00003F0C0FA01460546206A03F06FFB4FF0B1
:103AB0007E563146074603F071FC08B9019700E0D5
:103AC00001962946606A03F061FB4FF07E5631464D
:103AD000074603F063FC08B9029700E00296294606
:103AE000A06A03F053FB4FF07E552946064603F0CB
:103AF00055FC08B9039600E0039501A9201D02F0CA
:103B0000A3FB05B0F0BD00BF0000C8422DE9F041A5
:103B1000069CDFF84480DFF844C0C1F8008000252F
:103B2000C2F800C0DFF838E01D60074F074E25607F
:103B300008B9074800E007484860C2F804E05F6041
:103B40006660BDE8F08100BF0000C8420024F4496F
:103B5000806A494BF874C44C00002A43000082C2BA
:103B60000000FA4210B5044600F8041B02F0E2FB24
:103B7000204601F0D9FD204610BD70B586B004ABDB
:103B800005AC05460078009301940DF10F030E4635
:103B900000F008FF9DF90F302BB905F11002214606
:103BA000304601F07DFE9DF90F0006B070BD2DE995
:103BB000F04104460F461846002190461D4603F08A
:103BC000D9FB30B91749284603F0E8FB10B1154D71
:103BD00000E0154DA068002103F0B8FB00B1A7601C
:103BE000A6683846314603F013F9616803F01AFA03
:103BF000314603F00FF92169A0600646284603F01C
:103C000011FA616903F006F9294603F003F9414608
:103C10000246304601F094FD0249BDE8F0412FF024
:103C200075BC00BF0000C84217B7D1382DE9FF416D
:103C30009046064604AA012402F8094D16F8100B16
:103C40000D4600F0D5FE9DF8077003900023BB429F
:103C50000BDA5C1CE3B2012B05D103AB42462946CB
:103C6000304602F0A5F82346F1E704A9039B21F8AA
:103C7000063D022202A82AF011FF9DF808302B70A1
:103C800003989DF809306B7004B0BDE8F0812DE910
:103C9000FF410646904604AA012002F8090D30783B
:103CA0000D4600F0A5FE9DF8077003900023BB426F
:103CB0000BDA5C1CE3B2012B05D103AB424629466B
:103CC000B06801F0B0FE2346F1E704A9039B21F898
:103CD000063D022202A82AF0E1FE9DF808302B7072
:103CE00003989DF809306B7004B0BDE8F08170B5A1
:103CF00086B004AB05AD04460078009301950DF144
:103D00000F030E4600F04EFE9DF90F3023B92946F1
:103D1000304601F06CFEA0609DF90F0006B070BD4A
:103D20002DE9F0410646084603F024F901461A48F9
:103D300003F02CFA4FF07C5103F074F94FF07E54ED
:103D40000146164803F022FA21462FF0DFFB144902
:103D5000804603F067F92FF07BFB014603F062F920
:103D60000546014603F05EF9294603F053F82FF0AB
:103D700052FB21460746404603F0E8FA48B9294677
:103D8000384603F045F8014603F044F87060BDE89A
:103D9000F0817460BDE8F0810000C84299D4503CC5
:103DA000DB0FC93F70B586B004AB05AD04460078A3
:103DB000009301950DF10F030E4600F0F3FD9DF900
:103DC0000F3023B92946304601F011FE60609DF99D
:103DD0000F0006B070BD2DE9F84F1768DDF8289088
:103DE00006463846144698468B4603F011F8A168FB
:103DF0000546384603F00CF80146284603F0C6F99C
:103E00005A4903F00FF95A4903F004F8014600201B
:103E10002FF06AFB014657482FF078FBB168074640
:103E2000284603F0FFF8524902F0F4FF0146002053
:103E30002FF05AFB4FF07E510546404603F090FAB2
:103E4000002835D04146404603F0ECF8D6F814A0DF
:103E500080465146384603F0A1FA80B141463846C3
:103E600003F0E0F8414607464FF07E5002F0D0FFE5
:103E7000514603F0D7F8394602F0CCFF0746D6F892
:103E800018A02846514603F089FA98B141462846C1
:103E900003F0C8F8414605464FF07E5002F0B8FFE7
:103EA000514603F0BFF8294602F0B4FF054601E091
:103EB0007761B561C9F800702369C9F804300B9BBC
:103EC0000B9A1D60236953607168284603F052FA0B
:103ED00038B12949284603F0A5F8284902F09AFF8D
:103EE00003E02749284603F09DF8014625482FF0B6
:103EF000FBFA0C9B0C9A186023695360F168284602
:103F000003F090F8316902F085FF01461C482FF05C
:103F100035FA01461C482FF0E7FA01461B482FF0FE
:103F2000F5FA0D9B0D9A1860236953606568594630
:103F3000284602F06DFFE1680646284602F068FF59
:103F40000146304603F022F9114903F06BF810499D
:103F50002FF0DCFA014600202FF0C6FA0E9B0E9AD5
:103F6000186063695360BDE8F88F00BF0000164316
:103F7000000048420000FA430000A04000007A43DD
:103F8000000020410000C843CDCCCC3D00007A4465
:103F90000000C8422DE9FF410646904604AA0120D0
:103FA00002F8090D30780D4600F022FD9DF80770EB
:103FB00003900023BB420BDA5C1CE3B2012B05D15A
:103FC00003AB42462946706801F02DFD2346F1E718
:103FD00004A9039B21F8063D022202A82AF05EFDF7
:103FE0009DF808302B7003989DF809306B7004B071
:103FF000BDE8F0812DE9FF410646174604AA0520D9
:1040000002F8090D30780C4600F0F2FC9DF80780AC
:1040100003900023434525DA5D1CEBB2013B042BE2
:104020001ED8DFE803F003080D12170003AB3A4671
:104030002146706912E003AB3A462146B0690DE0B3
:1040400003AB3A462146B06808E003AB3A46214646
:10405000F06803E0306903AB3A46214601F0E3FC27
:104060002B46D7E704A9039B21F8063D022202A8AC
:104070002AF014FD9DF80830237003989DF809304C
:10408000637004B0BDE8F081034B4361836100239A
:104090008360C360036170470000484208B5022393
:1040A0000370024B4360FFF7EFFF08BD000048427A
:1040B0004FF6FF73994210B5044619D0B1F5967FBB
:1040C00006D0B1F5E16F01D0642903D1094802E0BF
:1040D000094800E009482FF029F92FF0B6F9014608
:1040E000074803F053F8074BE360074BA0602361D8
:1040F00010BD00BF9A99193F0AD7233F304C463F65
:10410000000016434F57213C841C4BBFF0B587B0CD
:1041100004AB05AD04460078009301950DF10F0343
:104120000E4600F03FFC9DF90F3003BB0127FBB2A8
:10413000013B29463046032B13D8DFE803F0020683
:104140000A0E01F054FC60610EE001F050FCA06129
:104150000AE001F04CFCA06006E001F048FCE060E1
:1041600002E001F044FC20610137062FDFD19DF908
:104170000F0007B0F0BD00BF2DE9F84F1946064605
:10418000104614461D4601F085FA02F0CDFDC7B277
:10419000384602F087FA02460B462046294602F0CE
:1041A00053FD20B1B6FBF7F007FB10604AE0304644
:1041B00002F068FA002206460F46002320462946F0
:1041C00002F042FD88BB204629462FF03DFB024607
:1041D0000B462046294602F037FD30BB22462B46CF
:1041E0003046394602F0F2FB2FF04EF80022174B12
:1041F0008046894602F00AF92FF0A6FA02460B46DD
:104200004046494602F000F92FF03EF8002282466F
:104210008B460F4B4046494602F0AEFA02460B462B
:104220005046594602F024FD30B922462B4630460E
:1042300039462EF099FF01E00020002101F02AFA12
:1042400002F072FDC0B2BDE8F88F00BF0000E03F91
:104250000000B03C000000001649016116494161B0
:104260001649816109221649027030B5154A41622A
:10427000154942608162002214498260C260C261B5
:104280000262C16202634263114942648264114A5C
:104290008163C2641049114AC16302651049114A21
:1042A00001644FF0FF346FF000450266C0E9164527
:1042B00030BD00BF1C7CE13D3480D73F0000A040F2
:1042C000CDCC0C3E07F0963D67D5273EE63F4CC06F
:1042D00091ED3CBF5DFEE33EFB3A403F363C85BF7F
:1042E000B1508340000040402DE9F04786B004AB58
:1042F00005AD04460078009301950DF10F030E46BD
:1043000000F050FB9DF90F3013BB012704F140086A
:1043100004F12C0904F1180AFBB2013B032B0FD85E
:10432000DFE803F002040A0C221D00E05246294691
:10433000304601F05AFD08E04A46F8E74246F6E703
:104340002946304601F053FB20660137062FE3D1A2
:104350009DF90F0006B0BDE8F0872DE9F3471D4633
:10436000BDF83030B3F5E16F07468846144629D0D2
:1043700005D8642B0ED0B3F5967F27D00CE041F220
:104380007072934204D047F2305293421CD003E043
:1043900002261CE005261AE000264FF0FF326FF0DF
:1043A00000432046294601F0CDFF08B9C7E916456C
:1043B0003146404602F02CFD0D9902F029FD02B075
:1043C000BDE8F087066EE8E7012600E004264FF01E
:1043D000FF326FF00043D7E9160101F0B3FF002868
:1043E000DAD1D7E91623DDE90A9AB9EB02006AEBC4
:1043F000030102F093F91AA3D3E9002302F0E6FACD
:104400000B460246CDE9002336B202F0ADFC07EBC5
:10441000860957F82610824602F004FED9F81410D7
:1044200002F0F8FCD9F828100646504602F0FAFDD2
:10443000DDE9002382461946104602F09DF902F09C
:1044400093FC0146504602F0E5FCD9F83C1002F01E
:10445000E1FC0146304602F099FE06469DE700BFAA
:104460000000000065CDCD412DE9FF470646174607
:10447000B04604AA052002F8090D18F8400B0C46B6
:1044800000F0B6FA9DF807900390002306F12C0A7D
:104490004B4528DA5D1CEBB2013B042B21D8DFE849
:1044A00003F0030810151A0003AB3A462146301DED
:1044B00004E003AB3A46214606F1180001F00CFC7B
:1044C0000FE003AB3A4621465046F7E703AB3A46C6
:1044D00021464046F2E703AB3A462146306E01F0F2
:1044E000A2FA2B46D4E704A9039B21F8063D022239
:1044F00002A82AF0D3FA9DF80830237003989DF89B
:104500000930637004B0BDE8F0872DE9F04387B04F
:104510000646904606AA012002F8090D30780D469D
:1045200000F066FA9DF80F70059000230DF1140954
:10453000BB420DDA5C1CE3B2012B07D1CDF8009031
:1045400043462A46D6E9160101F0D6FA2346EFE79C
:1045500006A9059B21F8063D022204A82AF09EFA2E
:104560009DF810302B7005989DF811306B7007B0D6
:10457000BDE8F08370B586B004AB05AD04460078A5
:10458000009301950DF10F030E4600F00BFA9DF913
:104590000F302BB92946304601F099FAC4E91601CB
:1045A0009DF90F0006B070BD30B50E49C1616421A0
:1045B000052280F828100C490270002400220025F2
:1045C000C16200218261C0E90845C0E9024542613B
:1045D000026180F8291080F82A1080F82B100263FD
:1045E00030BD00BFC9B28B5323291D5670B586B0AC
:1045F00004AB05AD04460078009301950DF10F035F
:104600000E4600F0CFF99DF90F307BB929463046B0
:1046100001F0EDF92946A061304601F028FC294659
:1046200084F82800304601F0E2F9E0629DF90F00BD
:1046300006B070BD2DE9F0470446D0E90201B2EBA7
:10464000000863EB010916461F46D4E908234245DA
:1046500073EB0903099DDDF828A003DB864277EBA5
:10466000010308DA00232361002384F82A300022A2
:104670000023C4E90223D4E90223134301D1C4E98E
:10468000026794F829308BB9D4E90201301A67EB3C
:10469000010102F089FC616902F0BCFBA169606163
:1046A00002F072FE10B1012384F8293094F82B3007
:1046B0008BB9D4E90201301A67EB010102F074FCF6
:1046C000216B02F0A7FBE16A206302F05DFE10B1EE
:1046D000012384F82B3094F82A308BB9D4E90201F5
:1046E000301A67EB010102F05FFC216902F092FBD6
:1046F000E169206102F048FE10B1012384F82A30FC
:10470000012E77F1000304DA01220023C4E9022319
:1047100001E0C4E90267089B94F829201A7094F814
:104720002A302B700B9B94F82B201A702B782BB906
:10473000E5690021284602F009FE28B14FF07E53BA
:10474000CAF80030BDE8F0872069294602F01EFD56
:10475000CAF80000BDE8F0872DE9FF41064617467C
:1047600004AA032002F8090D30780D4600F040F944
:104770009DF807800390002343451CDA5C1CE3B2DC
:10478000022B08D0032B0ED0012B12D103AB3A46DB
:104790002946B0690BE003AB3A46294696F9280052
:1047A00001F0D3FA05E0F06A03AB3A46294601F07E
:1047B0003AF92346E0E704A9039B21F8063D0222CB
:1047C00002A82AF06BF99DF808302B7003989DF829
:1047D00009306B7004B0BDE8F0812DE9F04387B07B
:1047E0000546164606AA072002F8090D28780C4649
:1047F00000F0FEF89DF80F900590002305AF4B45A3
:104800003ADA03F101085FFA88F3013B062B31D84D
:10481000DFE803F0040C11161C222A00009733462F
:104820002246D5E9020101F067F923E03B46324612
:10483000214668691CE03B4632462146286917E05C
:104840003B463246214695F829000AE03B4632466F
:10485000214695F82A0004E095F82B003B463246A5
:10486000214601F07DF905E0286B3B4632462146A2
:1048700001F0D9F84346C2E706A9059B21F8063D99
:10488000022204A82AF00AF99DF810302370059836
:104890009DF81130637007B0BDE8F0834FF6FF73E9
:1048A000994209D100230361002380F82A300022B5
:1048B0000023C0E90223704790F928200B4B4A439C
:1048C00002EB5202A2FB0323B1F5967FC0E9082355
:1048D00004D0B1F5E16F03D0642903D1044B02E0A9
:1048E000044B00E0044BC361704700BF8096980002
:1048F000C9B28B5276845F51C9B28B53F0B587B081
:1049000004AB05AE04460078009301960DF10F0349
:104910000D4600F047F89DF90F30002B3ED10127DE
:10492000FBB2013B052B31D8DFE803F0030A101678
:104930001E283146284601F0CAF8C4E902012AE0DF
:104940003146284601F053F8606124E0314628469C
:1049500001F04DF820611EE0059BEA5C003218BFB3
:10496000012284F8292006E0059BEA5C003218BF8A
:10497000012284F82A20013305930CE0059BEA5CB0
:10498000003218BF012284F82B20F4E73146284674
:1049900001F02DF820630137082FC1D19DF90F00D8
:1049A00007B0F0BDF7B5089E1C460D4609990023D7
:1049B000032A0B6007462370336001D8982314E064
:1049C00004230B602B788DF8043002226B788DF86D
:1049D000053001A90DF106002AF060F8BDF8063097
:1049E0003360AB78BB4201D09C23237003B0F0BD91
:1049F00010B514780CB19C4202D20020107010BD8A
:104A00008870042010BD0000F0B51468059D1C449A
:104A10008C4210D806998B4210D80021994207DAAF
:104A20004718166815F801E007F806E00131F5E7C8
:104A300014600020F0BD6FF02800F0BD6FF025007D
:104A4000F0BD90F8F4392DE9F0470446002B63D00F
:104A5000324EDFF8D080FDF755F8002346FA03F216
:104A600012F0010F2D4F03F1010509D013F80830A2
:104A700003F2D343E9B234F813202046FDF73CF9A2
:104A80001E2D2B46EAD12046FCF7BEFFDFF89480AE
:104A9000DFF89490002647FA06F3DB0716D40136B8
:104AA0001E2EF8D10025172284F8F459294604F661
:104AB000D61029F02BFF1A4B84F8F159DB7803F25A
:104AC000774304F6FC1204EB43031AE016F80830AF
:104AD000234493F8D539002BE1D039F916A00023EF
:104AE0004AFA03F212F0010F03F1010503D0E9B213
:104AF0002046FDF7D5F80B2D2B46F1D1CFE7042D3D
:104B00000AD0D88832F8021F884205F10105F6D193
:104B100084F8F159BDE8F087BDE8F087EF79F23FFE
:104B2000BC8D03084C8E03086A8E030870B5002400
:104B30001C70134C049D0C4414F8014C00EB44040D
:104B4000B4F8F4482C804FF6FF75AC4217D0B0F89B
:104B5000EE69B6FBF4F504FB1564A4B214B190F849
:104B6000F50960B1012001391870C9B2936882F863
:104B70003D0000FA01F11943916082F83E0070BDDA
:104B8000BC8D0308F0B50023324E334F1D464FF065
:104B9000010E4FF6FF7C46FA03F212F0010F2D4C86
:104BA0000ED0DA5D02F10042013A31F81220B2F57E
:104BB000E16F03D0624518BF012501E080F8F8E9F4
:104BC00001331E2BE7D190F8F8392BB1002D0CBF23
:104BD00000206FF00F00F0BDB0F8580B1E4E0246DB
:104BE00044FA03F5ED0706D59D5D013D31F81550FA
:104BF000AA4228BF2A4601331E2BF1D14FF6FF757A
:104C0000AA421FD0B0FBF2F302FB13039BB2DBB945
:104C1000114E01232F461F2B03F1FF3012D044FA0F
:104C200000F0C00713D5981910F8010C013831F8BD
:104C30001050BD420BD0B5FBF2F002FB105080B219
:104C400010B904E00020F0BD6FF00F00F0BD01339B
:104C5000E1E700BFEF79F23F4C8E030870B588B0F2
:104C600008AE2A4B46F8183D04460D46042231464C
:104C700003A829F013FF9DF80C3023709DF80D3028
:104C800063709DF80E30A3709DF80F30E37008A993
:104C9000002340F2BD1261E9042306A8082229F08E
:104CA000FDFE06A90822201D29F0F8FE2B683146DA
:104CB000103B042203A8029329F0F0FE9DF80C306B
:104CC00023739DF80D3063739DF80E30A3739DF828
:104CD0000F30E37301AA2046296800F095FD2B6888
:104CE0009DF8042023441A712B689DF80520234465
:104CF0005A712B68234400229A712B681C44E2717C
:104D00002B6808332B6008B070BD00BF020005029D
:104D10002DE9FF47164604AA05460E2002F8090DA4
:104D2000FE200C46FFF764FE9DF8078003900023E9
:104D300005F6723905F65E3A43456EDA5F1CFBB242
:104D4000013B0D2B67D8DFE803F0070D131921296C
:104D500031393F474C53595F03AB3246214695F8F2
:104D6000FB0956E003AB3246214695F8FC0950E0BA
:104D700003AB3246214695F8FD094AE003AB3246C3
:104D8000214605F6FE1001F0D1F944E003AB3246AE
:104D9000214605F6162001F0ECF93CE003AB324663
:104DA000214605F62A3001F00EFA34E003AB324614
:104DB0002146B5F8580B00F0C1FD2CE003AB32469C
:104DC000214695F85A0B24E003AB3246214605F6FE
:104DD0005B3000F0E9FD1EE003AB32462146504651
:104DE00003E003AB32462146484601F00AFA12E0DE
:104DF00003AB3246214695F8860B0AE003AB3246F8
:104E0000214695F8870B04E095F8880B03AB3246F2
:104E1000214600F045FE3B468EE704A9039B21F89E
:104E2000063D022202A829F039FE9DF808302370C1
:104E300003989DF80930637004B0BDE8F087F0B5C1
:104E40000024146000254FF6FF74C3E900450D30BF
:104E500000248C420EDA0578182D08D150F8055C34
:104E60001560A0F10D05D5E90067C3E900670134BD
:104E70001030EEE7F0BD30B585B00DF103030D46FF
:104E800002AA01A9FCF78EFD9DF8033053B1294613
:104E900001984FF0010402F059FA08B14FF00004F4
:104EA000E0B200E0012005B030BD2DE9F347DDF8A8
:104EB00028900B9F002489F800403C7090460A68B7
:104EC0009A46835C8DF804300244064653788DF888
:104ED000053002220D460DF1060001A929F0DEFD84
:104EE000BDF806200C9B52451A6003D9E02389F8CF
:104EF00000300FE02346934206DA2968F018415C3F
:104F000008F803100133F6E798F802303B702B687D
:104F10001A442A6002B0BDE8F0870B4B194410B563
:104F200011F8013C591E00EB4303B3F8A649944223
:104F30001EBF0918012481F8D649A3F8A629012328
:104F400080F8F43910BD00BF4C8E030801390329E5
:104F500010B5044610D84830FEF740FB012120462A
:104F6000FCF726FF04F12C00FFF78EF82046022103
:104F7000BDE81040FCF71CBF10BD2DE9F041012336
:104F80000022044680F8873B80F8882B80F8FC39A3
:104F90000222052380F8FB2980F8FD3918228AB007
:104FA000A34900F6FE1004F6142629F077FD04F656
:104FB000283733464FF6FF7223F8022FBB42FBD14E
:104FC00041F2707347F2305164204FF496724FF4FF
:104FD000E16540F2DC5EA4F8A03AA4F8A23AA4F895
:104FE000A43AA4F8A63AA4F8BA3AA4F8B03AA4F8B5
:104FF000B23AA4F8161AA4F8440AA4F8722AA4F83B
:10500000181AA4F8460AA4F8742AA4F81A1AA4F8DC
:10501000480AA4F8762AA4F81C1AA4F84A0AA4F8A4
:10502000782AA4F8301AA4F85E0AA4F88C2AA4F806
:10503000261AA4F8540AA4F8822AA4F8281AA4F874
:10504000560AA4F8842AA4F81E0AA4F84C1AA4F854
:105050007A2AA4F8A85AA4F8D63AA4F804EBA4F83B
:10506000D83AA4F806EBA4F8DA3AA4F808EBA4F8C6
:10507000DC3AA4F8B83AA4F8B43AA4F8E2EAA4F8FE
:10508000B63AA4F8200AA4F84E1AA4F87C2AA4F888
:10509000220AA4F8501AA4F87E2AA4F8241AA4F824
:1050A000520AA4F8802AA4F82E1AA4F85C0AA4F8DC
:1050B0008A2AA4F82A0AA4F8581AA4F8862AA4F876
:1050C0002C0AA4F85A1AA4F8882A5A49A4F8AA5A09
:1050D0004022A4F8AC5AA4F8AE5AA4F83A5A04F5FF
:1050E0001560A4F8E4EAA4F8325AA4F8345AA4F8F3
:1050F000365AA4F8385AA4F83C5AA4F83E5AA4F8F0
:10510000405AA4F8425A29F0C9FC08AB009304AAFB
:1051100006AB02A994F8870BFEF7F8FC049BC4F8D1
:105120005839069BC4F85439089BC4F85039029B7F
:10513000C4F85C390023C4F86439C4F86839C4F889
:105140006C39059BC4F87839079BC4F87439099BFE
:10515000C4F87039039BC4F87C394FF08043C4F81D
:105160008439C4F88839344BC4F88C3904F6563283
:105170003B464FF6FF7123F8021F9342FBD147F2E3
:1051800030530522A4F8583B84F85B2B00230A22F5
:10519000DFF8B4E0294D84F85C2B84F85A3B84F89E
:1051A000923904F65C3104F5376213F90E0021F8E8
:1051B000020F35F8130022F8020F01330A2BF4D145
:1051C00084F8863B0023A4F890394FF6FF7236F836
:1051D000023F934205D0B4F89019994238BFA4F821
:1051E0009039BE42F3D1164E164FDFF8608000258D
:1051F00046FA05F3DB0709D5EB5D18F8051004EB5B
:1052000043032046B3F8282BFFF787FE01351E2DF8
:10521000EED104F6D51304F6EC12012103F8011FB8
:105220009A42FBD12046FFF70CFC0AB0BDE8F081A2
:10523000468D03087C8D0308000010415E8D030835
:10524000EF79F23F4C8E0308728D0308288D030816
:1052500070B500230024002500F5396280F8F1398B
:10526000A0F8EE39C2E9004500F69812C2E90045FF
:1052700000F51A62C2E9004547F23052A0F8F2295F
:1052800000F6A61100F6D51400F6D4154FF6FF76F9
:105290001A4621F8026FA9424FF0000304F8012FCB
:1052A000F7D1662280F8F629012280F8F43980F8D7
:1052B000F53980F8F83980F8F03980F8F72980F866
:1052C000F93980F8FA3970BD90F89239934230B5C7
:1052D00008D012B1931E012B04D8002380F8F039B6
:1052E0008B606CE0B0F8B039B3F5E16F12D18B6828
:1052F00043F004048C60374C647B00EB4404B4F846
:10530000F4584FF6FF74A5421EBF43F4005343F018
:1053100004038B60B0F8B239B3F5E16F02BF8B685C
:1053200043F001038B60B0F8B439B3F5E16F02BF0D
:105330008B6843F002038B60B0F8B639B3F5E16FC8
:1053400002BF8B6843F008038B60B0F8CC39B3F52B
:10535000E16F02BF8B6843F400038B60B0F8C4397F
:10536000B3F5E16F22D0B0F8C639B3F5E16F1DD0C7
:10537000B0F8C839B3F5E16F18D0B0F8CA39B3F551
:10538000E16F13D0B0F8CE39B3F5E16F0ED0B0F8BD
:10539000D039B3F5E16F09D0B0F8D239B3F5E16F88
:1053A00004D0B0F8D439B3F5E16F05D18B6843F47C
:1053B000000343F00F038B608B6813B1012381F866
:1053C0003D30002380F8F93980F8922981F83E2099
:1053D00030BD00BFBC8D0308F0B589B01E460E9FDE
:1053E0000023172904460D463B6001D8DB236AE001
:1053F000914201D9DA2366E003788DF808304378CA
:105400008DF8093083788DF80A300422C3788DF83E
:105410000B3002A903A829F041FB039B2B4A9342BE
:1054200003D0013301D0DE234DE00822211D06A860
:1054300029F034FB082206A904A829F02FFBDDE996
:105440000423002140F2BD108B4208BF824206D0E7
:10545000002B08BFB2F1FF3F01D0DD2333E0237BF7
:105460008DF80830637B8DF80930A37B8DF80A3006
:1054700002A9E37B8DF80B30042203A829F00EFB70
:10548000039901F118039D4201D0D8231BE0204667
:105490002C4401AA103100F0B7F99DF8042014F84B
:1054A000043C9A420BD19DF8052014F8033C9A4223
:1054B00005D114F8023C13B914F8013C0BB1DC23FC
:1054C00001E010223A60337009B0F0BD020005021D
:1054D0002DE9F04786B004AB05AD009304460DF10D
:1054E0000F030195FE200E46FFF75CFA9DF90F3081
:1054F000002B40F0A880012704F6723804F65E39CC
:1055000004F65B3AFBB2013B0C2B5CD8DFE803F0FE
:10551000070E151C232A31383F45474D54002946B4
:10552000304600F0AAFA84F8FB0952E029463046DA
:1055300000F0A3FA84F8FC094BE02946304600F05D
:105540009CFA84F8FD0944E004F6FE122946304630
:1055500000F010FB3DE004F616222946304600F02C
:105560003DFB36E004F62A322946304600F070FB57
:105570002FE02946304600F0CAF9A4F8580B28E07D
:105580002946304600F079FA84F85A0B21E0524659
:105590002946304600F0F3F91BE04A4600E0424657
:1055A0002946304600F036FC13E02946304600F02C
:1055B00064FA84F8860B0CE02946304600F05DFA68
:1055C00084F8870B05E02946304600F056FA84F847
:1055D000880B01370F2F95D10023A4F8903904F6DA
:1055E000283104F614234FF6FF7033F8022F82425D
:1055F00005D0B4F89059954238BFA4F89029994243
:10560000F3D1134E134FDFF85080002546FA05F30F
:10561000DB0709D5EB5D18F8051004EB43032046C2
:10562000B3F8282BFFF779FC01351E2DEED104F6D7
:10563000D51304F6EC12012103F8011F9A42FBD1A5
:105640002046FFF7FEF99DF90F0006B0BDE8F08790
:10565000EF79F23F4C8E0308288D0308032913B518
:10566000044612D903788DF80430022243788DF86D
:10567000053001A90DF1060029F010FAA378FE2BE0
:105680000CBF00206FF0630001E06FF0670002B014
:1056900010BD00BF38B504460D462DF0F5FD0022C3
:1056A000144B01F0DBFA10B30022134B20462946BD
:1056B00001F0E8FA002240B10F4B2046294600F0E5
:1056C000A5FEBDE838402EF03FB80C4B20462946D9
:1056D00001F0E2FA48B9084B20462946002200F0C2
:1056E00093FEBDE838402DF0AFBF002400252046D2
:1056F000294638BD000030430000E03F0000E0BF15
:10570000074B0362074B43628362027F00230C3026
:105710000021934203DA40F8041F0133F9E7704790
:105720000AD7A33C0AD7233B0023017B03614361D3
:1057300000228A4202DA83600132FAE7704700BF32
:10574000F8B506460D4610460021144601F008FE45
:1057500030B92A49204601F021FE10B1274C00E063
:1057600000242649204601F011FD2DF0B7FD244903
:105770000446304601F056FC22490746304601F007
:1057800049FB0146384601F001FD214601F042FB8C
:105790001C49064601F046FC31460446184801F013
:1057A00037FB0146204601F0F1FC1549064601F0A1
:1057B00039FC14490446304601F02CFB01462046D2
:1057C00001F0E4FC0E490446284601F02BFC0D498B
:1057D0000646284601F01EFB0146304601F0D6FC85
:1057E0000146204601F014FB2DF052FD034901F063
:1057F00019FC0249BDE8F8402DF088BE0000C842FF
:10580000C3F58C41B81E734370B50B4E04464FF67A
:10581000FF73251AA94208DD14F8015B6B40DDB265
:1058200036F8155085EA1323F3E7DB439BB2137078
:105830001B0A537070BD00BFA68E030830B50B68FD
:10584000154685B00C460022184401A9835C5354C8
:1058500001320C2AF9D1284629F020F923680C33AB
:10586000236005B030BD7FB51C461B680C339342E6
:105870000E4602D90132226010E001AD01460C2231
:10588000284629F00BF90023F118E85C226801335F
:105890000C2B8854F8D123680C33236004B070BDFE
:1058A0000B6837B515460C4600221844835C0DF88A
:1058B00002300132082AF9D16946284629F0EEF86B
:1058C00023680833236003B030BD7FB51C461B68D6
:1058D000083393420E4602D90132226015E0014698
:1058E0000822684602AD29F0D9F808226946284600
:1058F00029F0D4F80023F118E85C22680133082B62
:105900008854F8D123680833236004B070BD13B500
:105910000B68C25C8DF8042003440C465B788DF85C
:105920000530022201A90DF1060029F0B7F823681D
:10593000BDF806000233236002B010BD30B51C462E
:105940001B6885B0023393420D46ADF8060002D9BC
:105950000132226011E002220DF1060103A829F0B4
:105960009DF823689DF80C20EA5421689DF80D30BD
:1059700029444B7023680233236005B030BD37B52E
:105980000B681546C25C8DF8042003440C465B7816
:105990008DF80530022201A9284629F07FF82368F6
:1059A0000233236003B030BD37B51C461B68023399
:1059B00093420D4602D90132226016E003788DF839
:1059C0000030022243788DF80130694601A829F0A1
:1059D00065F823689DF80420EA5421689DF8053095
:1059E00029444B7023680233236003B030BD13B5E4
:1059F0000B68C25C8DF8042018440C4643788DF87F
:105A00000530042283788DF806300DEB0201C3784F
:105A10008DF80730684629F041F823680098043370
:105A2000236002B010BD30B51C461B6885B004333E
:105A3000934201900D4602D9013222601BE00422FC
:105A40000DEB020103A829F029F823689DF80C202A
:105A5000EA5423689DF80D202B445A7023689DF862
:105A60000E202B449A7023681D449DF80F30EB7074
:105A700023680433236005B030BD13B50B680C46B2
:105A800002A9C35C01F8013D01220DF1060029F0D5
:105A900005F823689DF806000133236002B010BDAD
:105AA00037B58DF8070018681C46431C93420D4615
:105AB00002D90132226008E001220DF107012844D9
:105AC00028F0ECFF23680133236003B030BD1FB51D
:105AD0000B680C460022184402A9835C535401321F
